{
  "contractName": "SimpleStorage",
  "abi": [
    {
      "constant": true,
      "inputs": [],
      "name": "storedData",
      "outputs": [
        {
          "name": "",
          "type": "uint256"
        }
      ],
      "payable": false,
      "stateMutability": "view",
      "type": "function"
    },
    {
      "inputs": [
        {
          "name": "initVal",
          "type": "uint256"
        }
      ],
      "payable": false,
      "stateMutability": "nonpayable",
      "type": "constructor"
    },
    {
      "constant": false,
      "inputs": [
        {
          "name": "x",
          "type": "uint256"
        }
      ],
      "name": "set",
      "outputs": [],
      "payable": false,
      "stateMutability": "nonpayable",
      "type": "function"
    },
    {
      "constant": true,
      "inputs": [],
      "name": "get",
      "outputs": [
        {
          "name": "retVal",
          "type": "uint256"
        }
      ],
      "payable": false,
      "stateMutability": "view",
      "type": "function"
    }
  ],
  "bytecode": "0x608060405234801561001057600080fd5b506040516020806101618339810180604052810190808051906020019092919050505080600081905550506101178061004a6000396000f3006080604052600436106053576000357c0100000000000000000000000000000000000000000000000000000000900463ffffffff1680632a1afcd914605857806360fe47b11460805780636d4ce63c1460aa575b600080fd5b348015606357600080fd5b50606a60d2565b6040518082815260200191505060405180910390f35b348015608b57600080fd5b5060a86004803603810190808035906020019092919050505060d8565b005b34801560b557600080fd5b5060bc60e2565b6040518082815260200191505060405180910390f35b60005481565b8060008190555050565b600080549050905600a165627a7a7230582085f230a03fa1ccf8be47620cb969d28c97f3ef48d4a48504581da262e0c4abba0029",
  "source": "pragma solidity ^0.4.17;\r\n\r\ncontract SimpleStorage {\r\n  uint public storedData;\r\n\r\n  constructor(uint initVal) public {\r\n    storedData = initVal;\r\n  }\r\n\r\n  function set(uint x) public {\r\n    storedData = x;\r\n  }\r\n\r\n  function get() view public returns (uint retVal) {\r\n    return storedData;\r\n  }\r\n}",
  "sourcePath": "C:\\quorum\\test1\\truffle_project\\contracts\\SimpleStorage.sol",
  "compiler": {
    "name": "solc",
    "version": "0.4.24+commit.e67f0147.Emscripten.clang"
  },
  "schemaVersion": "2.0.1",
  "updatedAt": "2018-08-21T12:19:23.113Z"
}